:020000041000EA
:1000000000B5324B212058609868022188439860DF
:10001000D860186158612E4B002199600221596106
:100020000121F02299502B49196001219960352056
:1000300000F044F80222904214D00621196600F024
:1000400034F8196E01211966002018661A6600F04E
:100050002CF8196E196E196E052000F02FF8012189
:100060000842F9D1002199601B49196000215960AB
:100070001A491B48016001219960EB211966A021F2
:10008000196600F012F800219960164914480160C1
:100090000121996001BC002800D000471248134993
:1000A000086003C880F30888084703B5996A0420EC
:1000B0000142FBD001200142F8D103BD02B5186610
:1000C0001866FFF7F2FF186E186E02BD00000240BE
:1000D000000000180000070000035F00212200005C
:1000E000F4000018222000A00001001008ED00E03C
:1000F00000000000000000000000000074B24E7A12
:1001000000200420F7010010C3010010C5010010F9
:10011000C1010010C1010010C1010010C101001097
:10012000C1010010C1010010C1010010C701001081
:10013000C1010010C1010010C9010010CB01001065
:10014000CD010010CD010010CD010010CD01001037
:10015000CD010010CD010010CD010010CD01001027
:10016000CD010010CD010010CD010010CD01001017
:10017000CD010010CD010010CD010010CD01001007
:10018000CD010010CD010010CD010010CD010010F7
:10019000CD010010CD010010CD010010CD010010E7
:1001A000CD010010CD010010CD010010CD010010D7
:1001B000CD010010CD010010CD010010CD010010C7
:1001C00000BE00BE00BE00BE00BE00BEEFF3058054
:1001D000103800BEF2EB8871D8B70010F4B70010E9
:1001E0003802001090A31AE71E481F49086006C88D
:1001F00081F3088810471D480068002801D019487D
:10020000F3E70DA40ECC002902D000F012F8F9E7B4
:100210001749184A002000E001C19142FCD116495B
:100220008847164988471649884700BEFDE701C937
:1002300001C29A42FBD37047F4B70010C0000020FF
:100240004034002074EB0010000004200000042063
:1002500074EB0010001004200010042000000000C7
:10026000704700000000000008ED00E0000000D032
:1002700040340020C46300206D3C001011030010C6
:100280002D3C0010F8B5C04606480749091A8B10E6
:10029000C90FC91810B5491003D0044B002B00D06A
:1002A000984710BD4034002040340020000000007A
:1002B000054B10B5002B03D00449054800E000BFF2
:1002C000FFF7E2FF10BDC0460000000070460020AE
:1002D000289E001070B584B006000C0001AB02AA85
:1002E00003A901F089FC051E04D1002C09D12000CE
:1002F00004B070BD019A0299039801F049FC2C00EA
:10030000F5E70248310000F0ABFBC046289E001024
:1003100000B583B001211148FFF7DCFF0A2001F08E
:1003200037FA04F07BF90E4804F00EFA01A9012314
:100330000B7000234B70002005F084F800F016FAD3
:1003400000F01EFA00F01CFA01200021404205F0E6
:10035000DDFB002005F060FEF4E7C046C0D40100DC
:100360008505001010B50C000949220009F0D2FAE9
:10037000002801D1002C05D106491122002005F0EA
:10038000AFFE10BD0449152205F0AAFEF9E7C046EC
:100390005C9E00107C9E0010649E0010F0B5C64666
:1003A00000B588B06D4620226946002005F016FE93
:1003B000C6B2FF240440631EEB5C0D2B16D00A2B43
:1003C00014D0154B1B781B19FF2B21D8220069462E
:1003D000002005F085FE104F3D78104828182200B7
:1003E000694602F0EDFAAD193D7011E00A4C217832
:1003F0007118C9B221700139084800254554C9B2A5
:10040000FFF7B0FF257006490222002005F068FEC4
:1004100008B080BCB846F0BDBE630020B4620020C6
:10042000F8AA001030B583B00D000A788B1C0121AA
:10043000002006F071F9002400211AE00023002BAF
:1004400015D12B7822221A40531E9A411C4B400092
:100450001B18D35C6A46D371002B08D00A2B1BD023
:1004600001226B46D91D002005F03AFE012101341E
:10047000E4B2052C16D82B1998780028F7D0002361
:10048000052BDBD80F4AD2189278904202D0013364
:10049000DBB2F5E70123D2E70B490122002005F08A
:1004A0001FFEDDE7002906D106480822290002F0D8
:1004B00087FA03B030BD002005F0AEFDF4E7C0467A
:1004C00084AB00108C600020909E0010F0B5D646E2
:1004D0004F464646C0B590B082460C000A780123CC
:1004E000CB56022161560320205600260296019029
:1004F00000910221002006F02CF92178CB0733D59A
:100500004C239C464A0732D54D22880731D55220CC
:10051000CE0630D5462609072FD542270125655737
:10052000022161568846032161568946144908AC68
:100530004B46069343460593049503970296019014
:10054000009263465246200003F02AFB020021007D
:10055000002005F0C5FD002005F05EFD10B0E0BCF8
:10056000BA46B146A846F0BD2D239C46CAE72D22C7
:10057000CBE72D20CCE72D26CDE72D27CEE7C046B3
:10058000949E001030B587B00A2001F001F902AA4C
:100590000C4B1100180038C838C103680B60642187
:1005A000012007F0A5F801A902230B7000234B706E
:1005B000012007F0ABF801200021404207F068FD60
:1005C000F9E7C04684AC0010F0B5CE46474680B58A
:1005D000C9B005000F0045AE1F4B320013CB13C24C
:1005E0003900280008F0C4FC040044AB9946892374
:1005F0005B006B4498464A461900280007F03AF819
:100600004B461B8842461288144904A88046A00025
:100610008059029001970095404603F0C1FA02000C
:100620004146002005F05CFD002005F0F5FC013C92
:10063000E4B2012C04D949B0C0BCB946B046F0BD03
:100640003900280008F0B4FC0028F4D104491E2227
:1006500005F046FDEFE7C04694AC0010B09E0010D8
:10066000E49E001030B5C1B002000B00074C210021
:10067000684603F095FA02006946002005F030FD57
:10068000002005F0C9FC41B030BDC046049F0010F9
:1006900070B504000D00160008F06AFC012806D0B1
:1006A000022808D131002000FFF710FF03E03100DD
:1006B0002000FFF7B7FE2900200008F079FC002891
:1006C00000D070BD02491E2205F00AFDF9E7C046C0
:1006D000E49E001000487047C0AD0010034B1B782B
:1006E000002B01D0024870470248FCE7BB630020A2
:1006F000C8AC0010A4AC001070B500280DD00428C0
:1007000024D8134B8000C458200009F061F9C0B20E
:100710001F2800D91F2000230DE00D4B19680D483C
:10072000022202F04DF9012007E05A1CE55C0A4B59
:100730005100CD52D3B29842F7D8013043009BB25A
:100740000548C02292001343038070BD0020FCE7DF
:10075000E82D0020863A0020843A002000487047A7
:100760002CAD0010704700207047704710B5032073
:1007700000F040F9D0231B0608229A6210BD000049
:1007800010B5D0231B065B681B0705D50123084A5B
:1007900012789A4202D110BD0023F8E7044A137080
:1007A00004F032FE034800F0F3FF04F037FEF2E7F6
:1007B000BB630020DC05000010B51300642901D0E4
:1007C000002010BD03481022190002F0F9F80120A2
:1007D000F7E7C046FC2D002010B5024803F068FC86
:1007E000012010BDFC2D002010B50138C0B203F06F
:1007F00053FD10BD10B50138C0B203F06DFD10BD42
:1008000030B50138C0B24200121812010C4BD21898
:100810009078D02109064C6801231D0085402800EE
:10082000204044426041D4784A68A34013405A4271
:1008300053415B001843431E9841C0B230BDC046CF
:10084000146000200138C0B243001B181B01034A8A
:100850009B18587B01235840C0B270471460002099
:1008600010B50138C0B203F05BFD10BD7047F0B5A4
:1008700083B004000D00160001AF3900280007F016
:10088000D1F97B78002B04D0FB78012B0AD0002310
:1008900000E00023013CE0B23200290003F05CFDDF
:1008A00003B0F0BD0123F5E710B582B004AC248895
:1008B0000138C0B2009403F0DBFD02B010BD10B5EA
:1008C0000138C0B203F01CFE10BD10B50138C0B233
:1008D00003F09EFD10BD000010B58300084A9A1871
:1008E00014684022544080322240064CA44663449F
:1008F0001A60C000044B9C466044416010BDC04675
:1009000004C0014004D001400040014080000C4B75
:100910009C46604400290ED00823002A0DD00422F2
:100920001343026853400C22134080225201944624
:100930006044036070470023EFE70022F0E7C04601
:1009400004C00140C000064BC31809041B6859408D
:10095000C0239B021940034B9C46604401607047D2
:100960000440014004500140C000064BC318090276
:100970001B685940C0239B001940034B9C466044B0
:10098000016070470440014004500140C000064B24
:10099000C31809031B685940C0239B011940034B2E
:1009A0009C4660440160704704400140045001408F
:1009B0008000054BC3181B684B4001211940034BB5
:1009C0009C4660440160704704C0014004D001406F
:1009D0008000064BC31809011B68594030230B40A7
:1009E000034A9446604403607047C04604C0014017
:1009F00004D0014010B501238340D0221206936237
:100A000093610521FFF768FF10BD000010B580233A
:100A1000DB05186803051B0D0B4A934207D10B4BEE
:100A2000034080229201934207D1000F10BD084B72
:100A3000084A0948222103F0FDF8084B054A0648F8
:100A4000232103F0F7F8C0462709000000F0FF0F4C
:100A5000789F0010D4AD00109C9F0010E89F0010FC
:100A60000FB400B583B0084803F008FA049B002BCC
:100A700007D005A90191180003F010FA034803F00C
:100A8000FDF9012003F0B4F8FC9F001080AB0010CA
:100A9000EFF3108072B6034B1B68002BFBD0BFF343
:100AA0005F8F70472C0100D0BFF35F8F024B002295
:100AB0001A6080F3108870472C0100D0F8B506004A
:100AC0000C001500FFF7E4FFE308F718F15C0722BC
:100AD0002240012393400B4205D1DBB20B433B7014
:100AE000FFF7E2FFF8BD21002800FFF7B9FFF0B5DE
:100AF00083B00600019114001F00FFF7C9FF00E05A
:100B00000134BC420CD8E308F518F35C07212140FE
:100B100001228A401A42F3D1D2B21A432A7001E06C
:100B200001246442FFF7C0FF002C02DB200003B069
:100B3000F0BD019B002BF9D00898FFF791FF000052
:100B4000054A1078431CDBB21370172B02D913002F
:100B500010221A707047C0460C2E002010B582B0CB
:100B60000100054C054B00931F2318222000FFF7BE
:100B7000BEFF02B010BDC046044200200CA0001011
:100B8000002307E0054A9A189200BFF35F8F002107
:100B9000116001331F2BF5D97047C0464000003467
:100BA000074B9B68103080001950BFF35F8FBFF375
:100BB0005F8F044B0021196082F310887047C04694
:100BC00000ED00E0240100D00048704700E400E0A0
:100BD00010B5FFF7F9FF002302E0034A04C0013318
:100BE000072BFAD910BDC0468080808010B50388DD
:100BF000DA0A1C2A05D15B055B1502335B00C018BD
:100C000010BD034B034A16210348FF3103F012F8CD
:100C100028A0001010AE001040A0001010B5091A56
:100C20000B1F0A4A88180A4A904208D8C90706D4F6
:100C30005B105B055B0D0748184380B210BD064B87
:100C4000064A08210648FF3102F0F4FFFC070000C5
:100C5000FE0F000000E0FFFF88A0001004AE0010AF
:100C600040A0001001238340034A10681840431E2F
:100C70009841C0B27047C04600E100E0002A05D0AC
:100C8000044BC0225200995019607047014A8023DA
:100C9000D150FAE700E100E010B50A001F2303403D
:100CA000012199404009FFF7E9FF10BD024B9B6805
:100CB00010308000C058704700ED00E070B50400AF
:100CC0000D00EFF3108672B60C4B1B68002BFBD0A7
:100CD000BFF35F8F2000FFF7E9FF094B984201D077
:100CE000A84205D1320029002000FFF759FF70BD4E
:100CF000044B054A0548E72102F09CFF240100D07F
:100D0000CD010010B8A0001038AE001040A00010B7
:100D1000F0B5DE4657464E464546E0B589B08146B9
:100D200001911500EFF3108B72B66F4B1B68002B0F
:100D3000FBD0BFF35F8F6D4B00269E57002E40DB2C
:100D40007400A419A4006A4824180622A256674B0E
:100D50001A70684B9A684B4610339B00D3589846DC
:100D60001B1A2F2B3BD9644B984531D105AF634BF0
:100D70003B80634973009A46981980005C4B984603
:100D800040440230FFF74AFF78805E4BBB80FF2370
:100D9000BB71FD71019B0793330053449B00434497
:100DA00007CF07C301231C43A0465A464146484685
:100DB000FFF7F6FE09B0F0BCBB46B246A946A04616
:100DC000F0BD514B514A74215148FF3102F032FFBE
:100DD000504B4E4ABD214E48490002F02BFF0123E3
:100DE00042469A439246101A0C2101F051F900290B
:100DF0000FD153460027DA79AA4212D90621595653
:100E000000290DDB4A005218920039491F008B1847
:100E1000F1E7414B3D4A8C213D48FF3102F00AFF8A
:100E20001F00002F2ED005AB3C4A1A80813A5A8011
:100E30000623FB560293002B17DA394805AB9A4676
:100E40009880029A9A71DD71019A0792381D2100EB
:100E5000FFF7E4FEB880BE71254B72009219920034
:100E60009B18524613CA13C39FE7381DFFF7BEFEF7
:100E700001007000801980001D4BC0180430FFF77E
:100E8000CDFEDBE705AF1D4B3B801D497300029390
:100E90009B199B00164A90461A0042440392901CEC
:100EA000FFF7BCFE7880039A101D5146FFF7B6FE8F
:100EB000B8801C4B52464146521A524153431B0DB7
:100EC000BB71FD71019A0792029B9B199B004344E1
:100ED00007CF07C3114B52461380813B5380012338
:100EE0001C43A04661E7C046240100D0BD6300203A
:100EF000102E002000ED00E0CD01001000A1FFFF4A
:100F0000402E002001BDFFFFF0A0001020AE001019
:100F100040A0001018A1001040A1001001480000DE
:100F200001BD0000AAAA0000F8B5012202432D4B22
:100F3000D31A2F2B28D8EFF30583002B2BD0EFF3F8
:100F4000108472B6284909680029FBD0BFF35F8F6F
:100F5000244D26490600761B76417143090D4DB29A
:100F6000234989689B00C95891421AD0002103295E
:100F700031D81C4B4A00521892009B189B795BB2E7
:100F8000AB421ED00131F2E71A4B1B4A9D211B4890
:100F9000890002F04FFE1A4B174A1848194902F00F
:100FA00049FE134A92681849D150184B1A78827139
:100FB0001D70BFF35F8F0C4B00221A6084F3108802
:100FC000F8BD084B4A005618B6009E19FF27B771A6
:100FD0000F4AB280E9E70F4B074AA2210748890070
:100FE00002F028FE102E0020240100D0AAAA000042
:100FF00000ED00E0C4A10010E8AD001040A000101A
:10100000ECA1001077020000CD010010BD630020AC
:1010100001BDFFFFF8A10010024B9C46614489000E
:10102000016070474000003410B50400FFF788FDF0
:1010300001002000FFF7F0FFFF232371BFF35F8F54
:1010400010BD10B50400FFF77BFD01002000FFF785
:10105000E3FFFF23237100236371BFF35F8F10BD94
:1010600010B50D4C09E00D4B0D4A0E481A2102F047
:10107000E1FD2000FFF7D8FF08340B4B9C4209D25A
:101080002368002BF5D0012BEDD12000FFF7D9FF0D
:101090000834F2E710BDC0463034002000A2001032
:1010A00078AE001020A2001040340020034B9C4674
:1010B000614489000160BFF35F8F704740000034D6
:1010C00010B504000120FFF749FD01002000FFF7E3
:1010D000EDFF10BD30B5846A151B0B1D9B001B581E
:1010E0001B1B9D4204D3046A01238B40234202D17F
:1010F000043189000A5030BD0004084370470000E5
:101100000A4B1968EFF3108372B60A68002AFCD004
:10111000BFF35F8F054A1268BFF35F8F0021116034
:1011200083F3108840BF00200021704798620020A0
:10113000F0B5DE4657464E464546E0B587B0EFF37C
:10114000058303221A409246AE4B9200D7583B7853
:10115000534507D10123524693409946AA4B4A462C
:101160001A6025E1A94BAA4AAA48922102F062FD21
:101170007A6973009B19DB009046984443469C684B
:10118000DD68A54800F0FCFB001BA941002900DA3E
:1011900016E1002D74DB43461B699B469F4B9B4524
:1011A0004FD00823F85E4346598889B2FFF7A4FF61
:1011B00043465969D847029003910299039A0B005C
:1011C000100013435CD013000A00002847DAA41A69
:1011D0009D41009401954346009C019D9C60DD600B
:1011E0000021595E002900DAEAE078694B005B18BB
:1011F000DB00C3189A68DB68A41A9D41002D00DA51
:10120000DEE039813D000835844604912A000597C7
:10121000B346009E019F049B002B2ADB0023D45E73
:1012200063001B19DB0063449C68DD6830003900F3
:10123000001BA94100291CDB1A000021595E049102
:10124000E9E743465B699B461B6958469847002877
:1012500016D05B461A685B6802920393ADE76E484E
:1012600000F08EFB029B039C1B184C4100930194E1
:10127000B1E70499059F5E464346198016809FE0BA
:10128000434600229B5E3B813A69EFF3108372B6BE
:1012900011680029FCD0BFF35F8F02217A5E4146BE
:1012A0000A807E803A69BFF35F8F0021116083F36B
:1012B000108885E03969EFF3108372B60A68002A56
:1012C000FCD0BFF35F8FB88800B201225242BA80CF
:1012D0003A69BFF35F8F0021116083F31088050026
:1012E000BC461CE0049300229A5E002A0EDB049B9D
:1012F0000021595E4B005B18DB0063449868D96895
:1013000034003D00241A8D41002DEBDA04995D462E
:10131000009B9C4644460D800023E55E2280002D04
:1013200012DB634658696C006419E4000419A6686E
:10133000E7686146083108229A5EAB46049163462D
:101340000093A0468446D0E767463EE00023BB7189
:10135000390008310823F85E0EE001246442E517E5
:101360009460D56008243B5F834204D00E8008243B
:101370003B5F138038813000431C29D07C694300D7
:101380001B18DB00E218E65E53881BB2002BE4DB7F
:101390001100F0E722002B0051461F48FFF79AFE8C
:1013A0001D4800F0EDFA241A8D41002D22DC1FD0DB
:1013B000194B4A465A630823FE5E002E00DBD7E62F
:1013C000BB881BB2002B00DB74E7BB79002BBDD1BF
:1013D0000823FA5E002A0DDB796953009B18DB00B5
:1013E000CB189C68DD68631CD4D16B1CD8D0D1E7C6
:1013F000002CDDD040BF07B0F0BCBB46B246A946CA
:10140000A046F0BD746000203C700540B8A20010FA
:10141000A4AE0010E4A200100040054031110010FD
:1014200070B504000D0011000126AE4006622800D0
:10143000FFF744FC01212800FFF72EFC024B9C46DD
:101440006444266070BDC04638200000F8B5CE4622
:10145000474680B50600894690461F00C160FFF7E9
:101460006FFB154B9C4660448000306143463370EF
:10147000BBB27381D02212061278727001225242DE
:101480003281B2809B187380002406E0621E73696B
:1014900065002D19ED005A530134BC42F6D3074BB9
:1014A00042469200D650064A41464846FFF7B8FFEA
:1014B000C0BCB946B046F8BD40000034746000209E
:1014C0003111001010B5064B1B69002B01D00448E8
:1014D00010BD044B044A0548652102F0ABFBC04631
:1014E000582E002028A300108CAE0010E4A200109B
:1014F000F8B505000E001700182001F025FA041EAB
:101500000ED01821380001F035FA60613100280052
:1015100000F02CFA3B00320029002000FFF796FF74
:101520002000F8BDF8B504000569EFF3108072B62D
:1015300029680029FCD0BFF35F8F0221665E6569D0
:1015400071008919C9006D18002E02DB0027E95FC0
:1015500061802169BFF35F8F00270F6080F31088DF
:10156000002E2CDB0699296107996961AA60EB605E
:101570006B8801335B04590C002B00D10121698079
:101580003000FFF7B9FD2169EFF3108372B60A68E6
:10159000002AFCD0BFF35F8FA2882A80A680226930
:1015A000BFF35F8F0021116083F31088E368217817
:1015B00001228A4003498C4663441A60F8BD012029
:1015C0004042FBE73C20000070B582B006001400EA
:1015D0001D0008AB1B78002B07D100F003FA220096
:1015E0002B00121A8B41002B0ADB079B0193069BF1
:1015F000009322002B003000FFF794FF02B070BD73
:101600000020FBE7F0B5C64600B584B0050088466B
:1016100016001F000AAB1C78FFF754FF02940197D5
:1016200000962A004346FFF7CFFF04B080BCB846BF
:10163000F0BD000030B504000A1443899A422EDA46
:10164000406953009B18DB00C3182569EFF3108233
:1016500072B628680028FCD0BFF35F8F588885B227
:101660000904090C884212D000202369BFF35F8F60
:101670000021196082F31088002811D0E3682178D6
:1016800001228A4007498C4663441A6008E00649F3
:10169000294389B259800123A3710120E5E7002085
:1016A00030BDC0463C2000000080FFFF10B50400A4
:1016B000FFF708FF2100FFF7BDFF10BDF0B583B0B5
:1016C00006000F00EFF30583002B1AD106246442B5
:1016D000E517A4197D418D4202D803D1844201D976
:1016E0000024002500F07EF922002B00121A8B4105
:1016F000002B0BDC08D03000390000F0B9F903B042
:10170000F0BD1648FFF7ACF9002AF4D0144A0023C4
:10171000009320002900FFF775FF002813DAEAE79D
:10172000104B1968EFF3108372B60A68002AFCD0D8
:10173000BFF35F8F0B4A1268BFF35F8F0021116008
:1017400083F3108820BF084B5B6A9D42E8D80649A6
:10175000896AA142CFD29D42CDD1E1E74CA30010CE
:1017600001110010986200200040054070B504008F
:101770000D0000F037F900196941002902DBFFF77D
:101780009DFF70BD012040420049F8E7FFFFFF7F49
:1017900010B5FA2292000023002101F00FF8FFF7A4
:1017A000E5FF10BDF0B5CE46474680B583B00500D5
:1017B0000C00EFF30583002B15D03F4B5B6A8B4287
:1017C00009D33D4A926A82420BD28B4201D001205A
:1017D00002E0002000E0002003B0C0BCB946B046E3
:1017E000F0BD0120F8E7FFF76DFEC3689946037866
:1017F00098462E002700484600F0C2F802000B0071
:10180000B61A9F41434604339B004A469B581B1A15
:101810000022BA420FDC0CD020BF274B5B6A9C42EF
:101820002DD8254A926AAA422BD29C4225D001206B
:10183000D2E7B342F0D9214A0023009328002100C7
:10184000FFF7E0FE00281EDD1B4B5B6A9C4205D8BB
:10185000194A926AAA4202D29C4200D120BFFFF7E5
:1018600025FF154B5B6A9C4221D8134A926AAA4213
:101870001FD29C4219D00120AEE70020ACE7002027
:10188000AAE70120A8E70C4B5B6A9C4209D80A4AE8
:10189000926AAA4207D29C4201D001209CE7002014
:1018A0009AE7002098E7012096E7002094E70020BF
:1018B00092E7012090E7C04600400540011100106A
:1018C000F0B585B005000C9C1100194301D101222F
:1018D0000023A5600A992161226063600B99616110
:1018E000D81701004240160043401F00361A8F41AE
:1018F00000F078F832003B0012184B41002B0DDB52
:10190000012102910194074900912800FFF75CFE34
:10191000E060C317181AC00F05B0F0BD0122524293
:10192000014BEDE731110010FFFFFF7F00487047CA
:101930000040054010B50B4B1B69002B04D00A4832
:101940000A21FFF769FB10BDFFF7F0FF0400032138
:1019500000F00CF80348102303222100FFF776FD66
:10196000EDE7C046582E00209862002010B5024ACC
:101970000248FFF7A3F810BD9CA300100842002006
:101980000200436A906A1900536A9942FAD170477B
:10199000416A00E0416A9942FCD300E0416A994201
:1019A00002D1816A9142F9D37047F0B5C64600B5BD
:1019B000804614001D00FFF7E3FF06000F00220021
:1019C0002B0092197B41994202D804D1904202D94E
:1019D00001225242D3174046FFF7DAFF80BCB846D7
:1019E000F0BD000010B50248FFF7CAFF10BDC046A9
:1019F0000040054010B502000B000248FFF7D5FF7C
:101A000010BDC0460040054010B5002905DB826AC4
:101A1000836A9B1A8B42FBD310BD08000021FFF79D
:101A2000E9FFF9E710B5040008000C4B994208D80B
:101A30004901091A89000918C9002000FFF7E4FFCD
:101A400010BDFA2292000023002100F0B7FE020030
:101A50000B002000FFF7A9FFF2E7C0469BC420005F
:101A600010B501000148FFF7DDFF10BD0040054043
:101A700010B502000B000248FFF78AFF10BDC046F8
:101A800000400540F8B5D646474680B506000D0033
:101A90001700984644002418A400294B9C4664442F
:101AA0006368089A934200D26260331FDBB29A46A1
:101AB000012B2ED980221201C0239B01E3181A604A
:101AC000204BB200D158002907D0586900F0E0FA45
:101AD000013043001B18033BFDD27F0123685F40A8
:101AE000E0233B4080225201A21813605346012B91
:101AF0001AD980239B01E318802212011A60089BE7
:101B00006360104BB6004246F250C0BCBA46B046C5
:101B1000F8BD012DCED10322C0239B01E3181A602A
:101B2000A368DB07FCD5D8E72168694003230B4095
:101B30001360A3680122AA401A42FAD0D9E7C0462E
:101B40000080004010420020F0B583B005000E0078
:101B500017001800089900F09BFA0300089A140275
:101B600000943A0031002800FFF78CFF03B0F0BD6D
:101B700010B582B0802464000094FFF783FF02B0A8
:101B800010BD0000014B8000C0587047104200207B
:101B9000F0B583B005000E001400144F3B00012285
:101BA00001210520FFF7E4FF009433002A00012102
:101BB0000F4800F073F821007143280000F068FA24
:101BC00004000C4B002202210420FFF7D1FF230068
:101BD000002201210520FFF7CBFF3B00022200215C
:101BE0000620FFF7C5FF03B0F0BDC046006CDC0265
:101BF00000800240001BB700F0B5DE4657464E4657
:101C00004546E0B583B080468B4692460193A023BB
:101C10005B0099462AE0013C002C1ED025007D4344
:101C20002900300000F034FA4045F4D1290030009A
:101C300000F02EFA0029EED1144B4A4653435A467F
:101C4000136053461F60019B1C60012003B0F0BC71
:101C5000BB46B246A946A046F0BD013F002F01D0C9
:101C60003C00D9E701235B429C46E1444B460F2BE5
:101C700009D9074E4B465E43064BF218064B9A4273
:101C8000F0D80727EAE70020E0E7C046001BB700CE
:101C9000E02E0000508EF4FF50F80C00F0B5C64660
:101CA00000B504000E0017001D00374800F0F0F9E1
:101CB0008046364BFA18364B9A4239D80100380024
:101CC00000F0E6F90200103A98235B009A4235D8FA
:101CD0006B1E062B38D8069B013B062B34D83F09D8
:101CE000474537D32D04069B1B031D432368002B58
:101CF00036DB284B9C4244D00C2201239340264AD9
:101D00001360264A1360264A1268190091430A1E7E
:101D1000F9D12660A060234BE31821321A602268B3
:101D2000002AFCDAE56008221A6080BCB846F0BDE3
:101D30001D4B1E4A1E48112101F07CFF1D4B1B4A02
:101D40001B48192101F076FF1B4B184A18481C212B
:101D500001F070FF194B154A1548232101F06AFF65
:101D600022683F231340B342C3D1A3681B051B0D58
:101D70008342BED1E368EE22D2021340AB42B8D117
:101D8000D3E70D22B9E7C046001BB70080E84BD36C
:101D900080F8A93200C0024000E0004000F000409E
:101DA00008C0004004300000C0A30010BCAE00100A
:101DB00010A4001058A4001074A40010C0A40010B7
:101DC00080239B000B43014AD3627047008005408B
:101DD00010B5010018231B8814221088984710BDE5
:101DE00010B5010018231B8816221088984710BDD3
:101DF000F0B5C64600B507000E0000250123984641
:101E000000E00135B5420AD2AC003C192068FFF76A
:101E1000DFFF20600028F4D100239846F1E7404618
:101E200080BCB846F0BD0000074BAA2212011A6020
:101E30002132FF32DA60054B054A1A60024B5B68BB
:101E4000002BFBDA7047C0460040024000600240B1
:101E500000B0FA0010B5040001E008CC9847024B2E
:101E60009C42FAD310BDC046249E0010704700006B
:101E700010B50248FFF7EEFF10BDC046E89D001008
:101E800010B50248FFF7E6FF10BDC0461C9E0010CB
:101E9000054B064A1A60064B064A1A60064B1A683A
:101EA000044B9343FAD1704700E00040BFCDFBFEE6
:101EB00000F00040FE7F3C0008C00040044BDB6C9B
:101EC000002B03D1034B8022D2021A607047C04618
:101ED000000011504C201150044B054A1A60054B6C
:101EE0001B68DB43DB01FAD17047C04600F00040BD
:101EF000FFFFFF0108C00040034B40229A675A676A
:101F00001A67DA667047C04600F0014010B5FEF768
:101F100037FE10BD70B5044DA968044CC0222000E6
:101F200000F04EFDAC6070BD00ED00E00000002050
:101F300070B50420FFF726FE064900F0A9F8050059
:101F40000024002C00DD70BDE0B22900FFF738FF4F
:101F50000134F6E740420F0030B583B0274B002232
:101F60009A67FFF761FF264B01221A60234B5B6CD7
:101F7000012BFBD1234B03221A60204B9B6B012BBF
:101F8000FBD10133009304331F4A01211F48FFF79F
:101F900085FE052300931E4A01211E48FFF77EFEA1
:101FA0001D4B002202210420FFF7E2FD1B4D2B00F8
:101FB000002201210520FFF7DBFD194C2300002240
:101FC00000210720FFF7D4FD230000220021082074
:101FD000FFF7CEFD8023DB000093230000220021C9
:101FE0000920FFF7B1FD2B00002200210620FFF79A
:101FF000BFFDFFF79DFF03B030BDC046008000402D
:102000003CB0004030B00040002F685900800240D2
:10201000008C864700C00240001BB7004059730780
:10202000006CDC0201480421014B1847702E00208F
:10203000F11D0010014B9B6818470000702E002016
:10204000124A936F9B0815D29066D166002905D07D
:10205000FFE7FFE7FFE7516F106F704704B580217E
:102060000906C2175140002800D0C84307F05CFEA3
:10207000002104BDF0B5146E556E576F166FFFF753
:10208000E3FF1466556657671667F0BD000000D081
:10209000114A936F9B0813D210665166002905D030
:1020A000FFE7FFE7FFE7516F106F704704B50028A7
:1020B00001D00020C04307F037FE002104BDC04618
:1020C000F0B5146E556E576F166FFFF7E5FF146687
:1020D000556657671667F0BD000000D094464A4A1F
:1020E000926F9208624601D228E0C046F0B5464E93
:1020F000346E756E776F366F00F020F89446424A62
:1021000014665566576716676246F0BD94463E4AA8
:10211000926F9208624601D254E0C046F0B53A4E42
:10212000346E756E776F366F00F04CF89446364A11
:1021300014665566576716676246F0BD002B24DBB0
:1021400011D000293EDA00B5C943404200D1013127
:1021500000F038F8C943404200D10131DB4352421C
:1021600000D1013300BD002AEBD1002801D10029A4
:1021700005D00020C90FC90701D1C043410800B5EF
:1021800007F0B2FD0022002300BD00B500290ADBE4
:10219000DB43524200D1013300F014F8C9434042FE
:1021A00000D1013100BDC943404200D10131DB43C0
:1021B000524200D1013300F005F8DB43524200D116
:1021C000013300BD002923D1002B18D1002A0CD0E7
:1021D000BC460D4F38667A6600210023FFE7FFE713
:1021E000FFE77A6F386F67467047002801D00748CD
:1021F000010000B507F078FD0022002300BD0200B9
:102200000B00002000217047000000D0FFFFFFFFFF
:10221000002B00D0BFE0130C28D1002AE7D080B4F7
:10222000114F39667A66FFE7FFE730B4040C7B6F25
:10223000396F1B0423433B667A66FFE7FFE7FFE73E
:10224000C04684B27B6F3D6F1B0423433B667A66B6
:10225000FFE7FFE7C04600232C042D0C7A6F386F90
:1022600000196941B0BC7047000000D0F0B5944639
:102270000025140E01D112020835140F01D11201EC
:102280000435940F01D192000235D40F01D15200D0
:102290000135D40B0134254F7C66254C3C660E0C71
:1022A00093B2FFE7FFE7FFE73C6F6643360C770327
:1022B000BE467343DF0B5B04C01AB941130C734372
:1022C000DB18C91ACE086643360CB64493B2734382
:1022D0001F0F1B01C01AB941130C73431F0B1B05C1
:1022E000C01AB941860D8F023E436643360C092D54
:1022F00024DB520A7243801A7703460A6643360C7F
:1023000016235B1BDE40DF40BF1964466643821B19
:102310007046043506330100D940A840C01900D3E7
:102320000131A24206D20023F0BD0000000000D01F
:10233000FFFFFFFF121B0130F3D3F1E709277F1BDB
:10234000FE406446A2B27243801A00D20139220CC8
:102350007243130C1204821A99410B007046043523
:1023600013370100F940A840801900D30131002B38
:1023700002D1A2420AD2F0BD013000D30131121BBA
:10238000FAD2013BF8D1A24200D2F0BD013000D315
:102390000131121BF7E7F0B51C0C00D080E00CB443
:1023A00000251C0A04D11B02160E33431202083505
:1023B0001C0B04D11B01160F3343120104359C0B77
:1023C00004D19B00960F334392000235DC0B02D1FF
:1023D00092185B4101351C00971864410134464F47
:1023E0007C66464C3C660E0CFFE7FFE7FFE7C04605
:1023F0003C6F6643360C7703BE4697B27743C01BEB
:1024000000D20139C01B00D201399FB27743C91BEA
:10241000C91B170C77437E04FF0B801BB941CE0804
:102420006643360C0C2D33DBB644120B1F053A43C2
:102430001B0B97B27743C01B00D201399FB2774381
:10244000C91B170C77433E043F0C801BB941860D16
:102450008F023E43664329277F1BFE400C3D774693
:10246000AF40BF1930BCA2B2ABB272437343801A03
:102470009941220C7243130C1204801A99410200F4
:102480000B000137001BA941F9D2781E0021F0BDD5
:102490000C277F1BFE4077467F0BAF40FF19E0E71C
:1024A00000245D1C07D0144F7D663966FFE7FFE707
:1024B000FFE7FFE73C6F95B29EB265436643401B62
:1024C000B141150C1E0C6543664336042F0C3E4388
:1024D0002D04401BB141994204D202000B002000A0
:1024E0000021F0BD01D19042F7D3801A9941013407
:1024F0009942F2D3F6E70000000000D0FFFFFFFF93
:1025000048404140484018B4134B5B68019308BDF4
:1025100018B4114B1B68019308BD94460F4A926F83
:10252000920805D2624618B40B4BDB68019308BDD4
:102530000A4AF0B5146E556E576F166F6246FFF774
:10254000F2FF064A1466556657671667F0BD18B461
:10255000014B9B68019308BD94600020000000D0EF
:10256000FFB550404240504059404B40594000E078
:10257000FFB5154F4C00640D03D0BC4204D10C03D1
:1025800014D80020090D09055C00640D03D0BC427D
:1025900004D11C030AD800221B0D1B0501264B4049
:1025A00009D44B4003D58B4200D18242FFBD9942F2
:1025B000FCD19042FFBD0B43DB1803431343F5D01E
:1025C000C9434918FFBD0000FF07000000B5FFF731
:1025D000CFFF804100BDC04600B5FFF7C9FF01D95C
:1025E000002000BD012000BD00B5FFF7B9FF01D9F3
:1025F000002000BD012000BD00B5FFF7B1FF804104
:1026000000BD012040054A00121804D85A001218D3
:1026100001D80020704701207047000000210028E9
:1026200005D17047C1174840401AFAD0C90713B501
:10263000064B1B6898470CBC441CA2401005120BAB
:102640000349091B09051943114310BD946100207A
:102650001F04000010B54C00620D8023D218DB006F
:10266000D21A5B057E2A10DD9E3A13DACC170903D5
:10267000490819435242D140640001341532202ADE
:1026800005DAD0400843604310BD002010BD084665
:10269000604310BDC80FC018013810BD18B4024BFC
:1026A0005B6A019308BD00009460002010B50148EA
:1026B000FEF7D6F9DCA4001070B513231C78012CAA
:1026C00012D0012C12DC214B214A93642148FFF7E0
:1026D0007FFB214B186070BD20491D4A9800815036
:1026E00001331F2BF8D9ECE70023FAE71C48FFF76A
:1026F00077FB05001B48FFF773FB023803789B004C
:102700007F2B09DD12488022290000F059F9022CA4
:1027100008D0022CDADCD6E7134B144A14483321D4
:1027200001F088FA134B1A88B5231B029A4209D18B
:10273000114B1A88114B9A4204D1114B1A88114B34
:102740009A42E6D00020FEF78BF9C0468927001098
:10275000946000204C33000094610020AD260010EE
:102760005344000053460000F4A40010C8AE00100B
:1027700038A5001054380000D83800004946000041
:102780009C3800005946000007B56046002800D17B
:1027900000BE01880A0A0230DF2AFAD1C9B28208D3
:1027A00004D3028840880004104300E00068024A15
:1027B0005050039007BD00009460002051434343F4
:1027C000C9188C46110C83B24B4310B4040C6143FE
:1027D00092B280B2504362431C041B0C001910BC1F
:1027E00059411304120CC018514161447047000054
:1027F0004840414048400E4B5B6818470C4B1B68F3
:1028000018470C4A936F9B0802D2094BDB681847A4
:10281000F0B5146E556E576F166FFFF7F6FF054A49
:102820001466556657671667F0BD014B9B681847DD
:1028300098610020000000D0491A002808D10846FD
:1028400070470000C10FC90700D54042002817D0CB
:10285000F44603B40B4B1B68984706BC81409E3876
:102860004042803107D20B0607D04900490AC00513
:102870001043084360470130F8E7490A8902F5E749
:102880007047000094610020014B5B6A184700000C
:102890009861002010B50148FEF7E2F894A70010F7
:1028A00070B513231E781848FFF79AFA0500012E19
:1028B00011D0012E09DDAB1E1B789B007F2B1DDD87
:1028C00012488022290000F07BF81148FFF780FAB7
:1028D000104B186070BD0D485422290000F070F8AC
:1028E000002300E001331F2BE3D8084A9C00A258C4
:1028F000002AF7D10849054AA150F3E7074B084AD7
:102900000848422101F096F95346000098610020E2
:102910004C330000946100209528001094A500100D
:10292000DCAE0010C8A5001010B5002804D0401877
:10293000034B984200D810BD0248FEF791F8C046FC
:102940000000042020A6001070B50500084E3000DD
:1029500007F03AFA280006F0DDFC0400300007F02A
:10296000BBF929002000FFF7DFFF200070BDC04643
:1029700030340020F8B506000C00094F380007F08D
:1029800023FA2100300006F065FC0500380007F04E
:10299000A3F9210071432800FFF7C6FF2800F8BD06
:1029A0003034002001480421014B1847802E0020BC
:1029B000F11D0010014B1B6818470000802E0020FD
:1029C000014B5B6818470000802E00209A4200D21D
:1029D00088547047704710B5002802D00B684968CA
:1029E000984710BD0100002007E083001B185B0022
:1029F000501C08601078C01830380A681378303BD3
:102A0000DBB2092BF1D97047F0B5DE4657464E468A
:102A10004546E0B583B093461F000C9B9A460D9C3B
:102A20000E9B99460F9B9B0717D0B8460F000600D8
:102A300022E0551C4B4641462020B84701342A006D
:102A4000B442F6D33D004F465C46019B9B46B146DF
:102A50004646B84637002E000EE00192A34688464F
:102A60004E46B9460700EBE7013C551C5346185D3E
:102A700043463900B0472A00002CF5D135003E000E
:102A800047460F9B9B0711D4100003B0F0BCBB4618
:102A9000B246A946A046F0BD541C4B4641462020F4
:102AA000B8472200531BB342F6D3EDE7B0464E467B
:102AB000B9462F005D46F5E7F0B5CE46474680B5EE
:102AC00085B0944698460C9D0D9C0EAB1B7899469C
:102AD000109A119B129EB7071CD4002B0CD0F7073D
:102AE0000AD54F46002F02D10C37374204D0013BA4
:102AF00002E030272F550134944201D21F2CF8D91F
:102B0000F70707D59C4205D21F2C03D830272F5535
:102B10000134F5E7F70612D5770505D4002C03D06C
:102B2000944221D09C421FD00F9A102A2FD00F9A86
:102B3000022A36D01F2C0AD830222A5501341F2CE5
:102B400005D84A46002A32D02D222A550134039650
:102B500002930194009543466246FFF755FF05B086
:102B6000C0BCB946B046F0BD621E012C17D00F9F05
:102B7000102F0BD014000F9A102AD8D1B206D6D538
:102B80001F2CD4D858222A550134D3E7023CB20670
:102B9000F1D41F2CEFD878222A550134CAE714004B
:102BA000C2E71F2CD3D860322A550134C2E772071E
:102BB00003D52B222A550134C9E73207C7D5202275
:102BC0002A550134C3E7F0B5DE4657464E46454622
:102BD000E0B593B081468A46089209931CAB10CBAE
:102BE0001B789B461E9D219B9846002C03D11023E9
:102BF00042469A4390468023DB0046461E404246AA
:102C00001A4218D0002C22D0002614E04246920628
:102C10001BD54121C918C9B20A39C9B2771C0AAB00
:102C2000995529002000FFF733FAAC4210D31F2F2B
:102C30000ED83E00040029002000FFF729FACBB28D
:102C4000092BE3D83033D9B2E8E76121E2E7270066
:102C500043460693209B05931F9B049303955B4675
:102C6000029301970AAB0093099B089A5146484684
:102C7000FFF722FF13B0F0BCBB46B246A946A04600
:102C8000F0BDF0B5DE4657464E464546E0B597B036
:102C90000A900B910C929A46209B9946219F22AA5A
:102CA00013789B46249B0993259C289B98464A466B
:102CB0003A4302D11032934398468022D2004546CF
:102CC0001540434613420AD04A463A4341D00025B4
:102CD0002E0053460D934D46099B9A4621E02E0047
:102CE00053460D934D46099B9A461AE0424692067A
:102CF00023D54122D218D2B20A3AD2B2731C9946D5
:102D00000EAB9A555246230028003900FFF7FEF912
:102D1000BC4220D813D04B461F2B16D84E46050078
:102D20000F005246230028003900FFF7EFF9D3B215
:102D3000092BDBD83033DAB2E0E76122DAE7AA45C3
:102D4000E9D94E460D9B9A4608E04E460D9B9A46A1
:102D500004E0002602E04E460D9B9A464346069349
:102D6000279B0593269B0493099B03935B46029341
:102D700001960EAB009353460C9A0B990A98FFF7F5
:102D80009BFE17B0F0BCBB46B246A946A046F0BDBC
:102D9000F0B5DE4657464E464546E0B591B0804612
:102DA00089460C929A461A9C1B9D22002B002000FB
:102DB0002900FFF726FC002800D0F2E00122524251
:102DC000D54B20002900FFF717FC002800D0E8E0D1
:102DD00001225242D14B20002900FFF7F7FB0028C7
:102DE00000D0DEE00022002320002900FFF7EEFBE8
:102DF000002800D0EAE0069407958023DB001E9AA5
:102E00001A400D921E9A1A4201D106231C9306986D
:102E1000079902000B000892099303000A0002437D
:102E200000D1DFE0080D4005400DBD4EB4466044C2
:102E3000079E3203120B1E00BA4B13431F00FFF70D
:102E4000F1FBB94AB94BFFF782FBB94AB94BFFF71F
:102E50005FFB089009910022B74B30003900FFF763
:102E600052FBB64AB64BFFF772FB02000B00089804
:102E70000999FFF74DFBFFF7EDFB8346FFF7D2FB08
:102E800006000F00AF4AB04BFFF761FB0022AF4BCB
:102E9000FFF73EFBFFF7DEFB0890AD4AAD4B30007D
:102EA0003900FFF754FB06000F000898FFF7BAFB44
:102EB000A94AAA4BFFF74BFB02000B003000390078
:102EC000FFF721FB06000F0002000B00FFF73FFB9E
:102ED0000A900B91089BA24A944663440021002269
:102EE000089109921B0509930023089332003B00C7
:102EF00030003900FFF70CFB0E900F9132003B00C1
:102F000000208021C905FFF7FEFA06000F0000220D
:102F1000944B0A980B99FFF700FB0022924BFFF7A6
:102F2000F7FA02000B000A980B99FFF7F6FA002255
:102F30008E4BFFF7EDFA02000B000A980B99FFF792
:102F4000ECFA02000B0030003900FFF7E1FA020052
:102F50000B000E980F99FFF7E0FA0022714BFFF774
:102F6000D7FA089A099BFFF7F2FA06000F000896B5
:102F70000997069A079BFFF73FFB00280BD0012318
:102F80005B429C46E3440022774B30003900FFF758
:102F9000C4FA089009915B466333C62B45D80426D2
:102FA00023E01E9B04931D9B03931C9B02930094A0
:102FB000019553460C9A4946404600F0FBF811B083
:102FC000F0BCBB46B246A946A046F0BD0021002297
:102FD00006910792069480231B069C46AC446346E8
:102FE00007930AE700239B4604261E9B1B0528D552
:102FF000089A099B190011430FD05D4A5D4B069852
:103000000799FFF7F1FA00287AD000225A4B069868
:103010000799FFF7DBFA002872D01C9B5B4506DDA1
:103020005A469B1A013B1C9303E00526DDE700236B
:103030001C938023DB001E9A1A431E920026002355
:103040009B461D9B9E4265D29F1B02231E9A1A40DF
:103050000A921E9A134202D0002E00D000275B462F
:10306000002B07D0089A099B06980799FFF755FA95
:10307000069007910022002320002900FFF7A6FAFE
:10308000002800D07CE03D4B1E9A13400493039728
:103090001C9B0293069B079C0093019453460C9A39
:1030A0004946404600F086F8002E00D187E71E9B77
:1030B0009B0671D54525441C53460200494628000D
:1030C000C0475A46D317D2185A4005230593013EEC
:1030D0000496002303930A3302935B46DB0F0193AC
:1030E00000925346220049464046FFF76CFD0A9B7A
:1030F000002B00D163E7020047460C9E1D9D53E064
:103100001C9B002B9DD00D9B002B9AD01C9B013B40
:103110001C9396E7002798E7FFFFEF7FFFFFEFFF85
:1031200001FCFFFF0000F03FFB799F501344D33FA9
:10313000B3C8608B288AC63F0000F83F61436F63C5
:10314000A787D23F71A379094F930A400000E03F5F
:103150001655B5BBB16B0240EF39FAFE422EE63F81
:10316000FF03000000002C40000024400000184035
:103170002D431CEBE2361A3F80842E41FFF7FFFF00
:10318000069C079D22002900802000068446614499
:103190000B000692079376E765258CE7541C53468F
:1031A00049462020B8472200931BAB42F6D31000BB
:1031B00005E7C046F0B5DE4657464E464546E0B503
:1031C00095B00690079193469946209F1E9A1F9BA3
:1031D00010001900FFF715FA002831D101225242E0
:1031E000BC4B1E981F99FFF7F1F9002837D1012237
:1031F0005242B94B1E981F99FFF7FEF900283DD1A6
:103200000022B64B1E981F99FFF7F6F900284AD105
:103210000022B34B1E981F99FFF7D8F9002842D11E
:10322000002200231E981F99FFF7D0F900284AD1E9
:1032300000239846229B5B0500D4B0E0002452E0B6
:10324000229B0393219B029303230193A54B00939D
:103250004B465A4607990698FFF7D6FB08E1229B92
:103260000393219B0293042301939F4B00934B46AE
:103270005A4607990698FFF7C7FBF9E0229B5B07C0
:103280000ED59A4B04222299039121990291019221
:1032900000934B465A4607990698FFF7B5FBE7E0BF
:1032A000934B0322EFE7229B0493219B0393029706
:1032B0001E9B1F9C009301944B465A460799069803
:1032C000FFF766FDD4E01E9A1F9B00200021FFF748
:1032D0001AF91E901F9101239846ABE70CAB3022E0
:1032E0001A55013F01341F2C01D8092FF6D81E981A
:1032F0001F99FFF7AFF90500FFF794F902000B00E3
:103300001E981F99FFF7FFF87A4BFA009B181A686E
:103310005B680A920B93FFF71AF908900991FFF77F
:10332000BDF90600FFF77AF902000B000898099929
:10333000FFF7E9F80890099100226F4BFFF75CF95D
:1033400000282ED001363000FFF768F902000B008C
:103350000A980B99FFF740F9002801D001350026A3
:10336000002F2CD12800FFF75DF902000B001E98FA
:103370001F99FFF7C8F806000F0000225E4BFFF709
:1033800025F9002846D100225B4B30003900FFF7B9
:1033900033F900283ED1EB073CD501353AE006274A
:1033A0004CE70022544B08980999FFF70FF90028C1
:1033B000D6D1002E01D0F307D2D50136D0E7AA46E8
:1033C0001F2C11D8013F0A213000FEF761FE651C59
:1033D00030310CAB19550A213000FEF759FE092E89
:1033E0000ED906002C00EBE755461F2C0CD87B1E8F
:1033F000002F09D00CAA302111551F000134F4E729
:103400002B0055461C00F0E71F2C03D80CAB2E22D6
:103410001A5501341F2C10D80A212800FEF710FE7F
:10342000661C30310CAB19550A212800FEF708FE46
:10343000051E01D03400EDE734000323229A134027
:10344000012B1CD01F2C06D84346002B32D00CABCE
:103450002D221A550134229B0393219B0293019440
:103460000CAB00934B465A4607990698FFF7CCFAE7
:1034700015B0F0BCBB46B246A946A046F0BD219BA4
:10348000002B13D04346002B02D10C3313420FD034
:10349000219B013B2193190003E00CAB30221A550C
:1034A00001348C42CED21F2CF7D9CBE72199F8E713
:1034B0002199F6E7229B5B0704D50CAB2B221A550A
:1034C0000134C8E7229B1B07C5D50CAB20221A5537
:1034D0000134C0E7FFFFEFFFFFFFEF7F65CDCD4178
:1034E00065CDCDC190A6001094A6001084A6001052
:1034F0008CA60010E0B000100000E03FF0B5DE4602
:1035000057464E464546E0B593B007008A46934677
:103510001193002900D12CE3002508E06C1C5B46C8
:103520002A005146B847119B013311932500119B86
:103530001878002800D11EE32528EFD1013311931C
:103540000023180020E001231843013211920124C6
:1035500018E00223184301321192012412E00423DF
:1035600018430132119201240CE008231843013260
:103570001192012406E01023184301321192012414
:1035800000E00024002C09D0119A1378203BD9B216
:103590001029F6D88B00C449CB589F468146119B11
:1035A0001A781300303BDBB2092B10D92A2A13D02A
:1035B0000B94119B1A782E2A20D0119A1378683B0D
:1035C000D9B2122965D88B00B849CB589F4611A8AB
:1035D000FFF708FA0B90ECE71C9B1A1D1C921B6866
:1035E000002B04DB0B93119B01331193E1E70222C3
:1035F0000100114389465B420B93F4E78022D2001D
:103600004946114389465A1C11925A781300303B9F
:10361000DBB2092B0BD92A2ACFD11C9B1A1D1C9275
:103620001C68002C08DB119B01331193C5E711A81E
:10363000FFF7D8F90400C0E70024F4E780235B001B
:1036400049460B43511C119151786C2901D0994680
:103650001FE0C0239B00494619438946023211925C
:1036600017E0802349460B43511C1191517868297A
:1036700001D099460DE0C0234946194389460232DC
:10368000119206E080235B004946194389460132C6
:103690001192119B187867281CD8252800D25EE269
:1036A0000300253BDAB2422A00D958E29300804A4F
:1036B000D3589F4680239B004946194389460132CF
:1036C0001192E6E780235B0049461943894601329F
:1036D0001192DEE7782800D941E2692800D23EE263
:1036E0000200693AD2B201239340724A134210D1C8
:1036F0001A0600D50CE25B0500D430E21C9B1A1DB3
:103700001C921E68002C00D0BAE101225242330004
:1037100096E16F2842D005D8582841D0622803D1BD
:10372000022606E078283DD010234A469A43914667
:103730000A26582838D0692805D0642803D00C22DE
:103740004B46934399464B465A0502D50122934373
:10375000994669282DD064282BD04B469A0500D570
:10376000AAE0DA0500D5C2E05A0600D4D3E01C9ADC
:10377000111D1C911168FF220A404B4605930B9BBB
:103780000493039402960023019300925B462A005F
:1037900051463800FFF717FA05002AE00826C8E767
:1037A0001026C6E71026C4E720224B46134399464D
:1037B000C1E74B469A0520D4DA0551D45A0666D59E
:1037C0001C9A111D1C911168FF220A40D017111874
:1037D00041404B4605930B9B049303940296D20FF2
:1037E000019200915B462A0051463800FFF7EBF941
:1037F0000500119B0133119399E61C9A07320721AA
:103800008A43110008311C91116853689C46DB17EC
:103810000C930D930C9A0D9B100048400E900D9B3D
:1038200061464B400F930E980F990C9A0D9B801A8E
:1038300099410E900F914B4608930B9B079306946A
:103840000496002305936346DA0F029200900191DB
:103850005B462A0051463800FFF713FA0500C8E717
:103860001C9A111D1C911268D01711184140059324
:103870000B9B049303940296D20F019200915B4636
:103880002A0051463800FFF79EF90500B1E71A06F5
:1038900005D51C9A111D1C910023D25E96E71C9A37
:1038A000111D1C91126891E744AF001088AF001001
:1038B000D4AF0010419000001C9A073207218A43C0
:1038C000110008311C9108930B9B079306940496F2
:1038D00000230593029353681268009201935B469C
:1038E0002A0051463800FFF7CCF9050081E71C9A01
:1038F000111D1C9105930B9B0493039402960023C6
:103900000193136800935B462A0051463800FFF785
:103910005AF905006DE71A0606D51C9A111D1C916F
:1039200012681204120C28E71C9A111D1C911268CF
:1039300023E746281AD01C9B0733072293431A001B
:1039400008321C924A4604920B9A039202941A6817
:103950005B68009201935B462A0051463800FFF7EE
:1039600029FC0500119B01331193E0E520234A4611
:103970001A439146DFE7672801D0472804D1802306
:103980001B014A461A439146452801D0472803D1D6
:1039900020234A461A4391461C9B07330722934330
:1039A0001A0008321C924A4604920B9A039202941F
:1039B0001A685B68009201935B462A005146380002
:1039C000FFF7E6F90500119B01331193AFE50223E0
:1039D0004E461E404A4613421ED001241C9B1A1D0F
:1039E0001C926A1C904618785B462A005146B847DC
:1039F000002E14D1119B01331193454697E5551CB8
:103A00005B4651462020B84723002A005C1C0B99D6
:103A10009942F4D81500E1E701232A00F6E742466F
:103A200006E0561C5B4651462020B8472C00320069
:103A3000651C0B9BA342F4D89046DBE701330A00D8
:103A40001978002902D0511E002AF7D19B1B802231
:103A5000D2004946114088464946114202D0A3424D
:103A600000D92300022249461140109149460A42DA
:103A700008D02A00250099463B004746984626E094
:103A8000220044E6A1462A005146B2460E0006E056
:103A9000551C5B4631002020B84723002A005C1CDF
:103AA0000B999942F4D8150022004C463300564633
:103AB0009A4691462A0025003B004746984606E074
:103AC0001D000136541C5B465146C0472200307829
:103AD000002804D0002FF4D06B1E002DF0D115006B
:103AE0004B464746109A002A03D1119B013311938C
:103AF0001DE50B9E2A0006E0551C5B465146202022
:103B0000B84723002A005C1C9E42F5D81500ECE75C
:103B100021234A461A4313001C9A111D1C91126856
:103B2000059308230493039408330293002301931D
:103B300000925B462A0051463800FFF744F8050022
:103B4000119B01331193F2E46C1C5B462A00514631
:103B50002520B847119B013311932500E7E46C1C25
:103B60005B462A005146B847119B0133119325004B
:103B7000DDE40A4FD0E45D450DD35B465A1E5B463B
:103B800051460020B847280013B0F0BCBB46B246EF
:103B9000A946A046F0BD2A00F1E7C046D52900108D
:103BA0000EB430B584B0010007AC08CC03940122F8
:103BB000054D009452422800FFF7A0FC04B030BC31
:103BC00008BC03B01847C046CD29001010B584B01A
:103BD0000C0002A902904C600124044800931300D9
:103BE0006242FFF78BFC04B010BDC046D72900101D
:103BF00000BEFDE703000A4A1268002A08D0084AFE
:103C00001068C318074A9A4206D3054A13607047E2
:103C1000034A05491160F2E701204042F7E7C04638
:103C20004842002000000420C463002010B5FFF7C4
:103C3000DFFF000030B583B00D001900002A0BD063
:103C4000074B084C019200932B000200200000F06B
:103C500045F90120FFF7CCFF034B1A00F1E7C046FE
:103C60009CA60010ACA6001094A7001010B5EFF3AE
:103C70000583002B00D000BEFEF7FAF8034C01E0EC
:103C800008CC9847024B9C42FAD310BD249E0010EA
:103C9000289E001010B50300080011001B6898470B
:103CA00010BD0000F8B507000D001600437D002B85
:103CB00002D0002400200CE003681100280098477F
:103CC0002DE03B7D10E03B68154802219847601CC1
:103CD0000134B44214DA002CF3DD2B19013B1B78BC
:103CE0000D3B5A425341DBB22A5D0A2AF0D1002B28
:103CF000EED1A042E7DA3B68211A28189847E2E79C
:103D0000B04203DA3B68311A28189847002E06DDC6
:103D1000AD19013D2B780D3B5A4253413B75F8BD1F
:103D200030B1001070B505000368002B16D00C4BA5
:103D30001C6805E0290004C92000FFF7B3FF2469CF
:103D4000002C09D02368002BF9D0064B1B68002BF0
:103D5000F0D0A342F3D1EDE700232B6070BDC04645
:103D6000384200204442002070B505000C000B686A
:103D7000802B05D023685A1C2260E418257170BD81
:103D80000800FFF7CFFFF5E710B5FDF72BFE074A58
:103D9000002312184B41002B03DB054805F0E4FF1C
:103DA00010BD01225242034BF7E7C04640420F00CC
:103DB00038340020FFFFFF7F10B5024805F08CFF6C
:103DC00010BDC04638340020F0B5CE46474680B519
:103DD00083B006000D0090461C00FFF7D5FF81461A
:103DE0006B1C05D0002C08D0184F194B1C6807E03D
:103DF000300005F0EDFD0500F4E7164FF5E7246906
:103E0000002C17D02368002BF9D0134B1B68002B14
:103E100001D0A342F3D12A0031002000B847434625
:103E2000002BECD06B46D91D0A230B700122200019
:103E3000B847E4E74B46002B05D1280003B0C0BCCF
:103E4000B946B046F0BDFFF7B7FFF6E7A53C001056
:103E500038420020953C00104442002010B5064B2B
:103E60001C6800E02469002C04D06368002BF9D0A2
:103E70009847F7E710BDC0463842002070B50500EE
:103E800005F0A6FD04000123012201002800FFF730
:103E90009BFFFFF7E3FF200070BD0000F0B5A3B06B
:103EA00004000E00FFF770FF050001AF002301932F
:103EB0000948330022003900FFF788FE040038006B
:103EC000FFF730FFFFF7CAFF002D02D1200023B01B
:103ED000F0BDFFF771FFF9E7693D00100FB400B5C1
:103EE00083B004A901C90191FFF7D8FF03B008BC52
:103EF00004B01847F0B5C646150000B50E00040022
:103F00000021302282B02800FEF754FD584A0120DB
:103F10009446737863441B052360F378984000F05F
:103F200087FEF2782068B1780C2A00D994E0514BD2
:103F3000D702C3181B0DDB005B183F2B00D991E0A3
:103F4000DB033B4311273B439846A023DB059C46FC
:103F500043460F1DBF00C719900160440361444BE5
:103F600047609C467078E2606044000520606160B4
:103F7000337963441B05236173796361B379E3612A
:103F80003378AB70F27B002A5CD10133DBB2EB708B
:103F9000EB78394B394F9C46394B98466346E3637F
:103FA0004346276463642A73B389238700F094FC33
:103FB0006169206900F090FCE169206900F08CFCE7
:103FC0002A003100200005F0B7FEA8780121C0B218
:103FD000FCF7EEFCE8780121C0B2FCF7E9FCA87818
:103FE0000321C0B2FCF7F4FCE8780321C0B2FCF76F
:103FF000EFFC01212823002268462970EA54214B56
:10400000214A8380013101A805F076FE5A236846D3
:10401000022143711D4A01A805F06EFE1E23684669
:10402000022143711A4A01A805F066FE3C23694645
:10403000184A4B7101A8022105F05EFE02B080BC57
:10404000B846F0BD013BDBB2EB70AB780C4B124FC6
:104050009C46094B9846A1E7CD21104A1048114BC8
:10406000FFF7E8FDBF21104A0D48104BFFF7E2FDB6
:10407000020500000000E0AFC0170020AC170020D0
:104080009817002080D2FFFFFC41002064460020EA
:10409000AC62002084600020841700204CB1001026
:1040A000FCA60010DCA6001034B1001054A70010CC
:1040B000F0B5C646060000B5674D684C2A0084B0CE
:1040C00031002000FFF716FF022305202B74FDF7B7
:1040D00059FDFEF7B1FB6249051CFEF792FBEC218E
:1040E0008905FEF78BFB8046FEF7CEFB87B20020EA
:1040F000002F0DD03800FEF79FFB011C4046FEF755
:104100007AFB8721C905FEF790FBFEF7BDFBC0B225
:104110004A23E054023BE7525249281CFEF771FB48
:10412000EC218905FEF76AFB8046FEF7ADFB87B2FE
:104130000020002F0DD03800FEF77EFB011C40460A
:10414000FEF759FB8721C905FEF76FFBFEF79CFBC5
:10415000C0B25223E054023BE7524349281CFEF709
:1041600050FBEC218905FEF749FB8046FEF78CFBEE
:1041700087B20023002F0DD03800FEF75DFB011C35
:104180004046FEF738FB8721C905FEF74EFBFEF7D8
:104190007BFBC3B24E22A3544C233449E752281C64
:1041A000FEF72FFBEC218905FEF728FB071CFEF725
:1041B0006BFB85B20020002D0DD02800FEF73CFBE4
:1041C000011C381CFEF717FB8721C905FEF72DFBE4
:1041D000FEF75AFBC0B256230421E054244A023BA6
:1041E0002448E55205F088FD234B00211870234A2E
:1041F000002005F081FDB37B002B0ED0204B18680A
:10420000204C2378002B03D100280FD101232370E9
:104210001D4804B080BCB846F0BDB068184C2060A2
:10422000002811D0174C2378002BF1D100230193E3
:104230000123164A5B420292154A0092154AFDF785
:104240003FFB01232370E3E7FDF770FB012202210E
:10425000FDF74EF92060D3E7146000208846002067
:10426000001B374C001BB74A001BB74C001B374BD9
:10427000A0620020902E0020BF6300205C4600203A
:1042800048370020C063002064470020C03500206C
:104290007521002018FCFFFF012210B544000D4BD2
:1042A00024182401E418E273A0780221C0B2FCF7BC
:1042B0005BFBE0780221C0B2FCF756FBA07803213B
:1042C000C0B2FCF763FBE0780321C0B2FCF75EFBF1
:1042D00010BDC0461460002010B544000F4B2418D8
:1042E0002401E418A0780021C0B2FCF74FFBE0786D
:1042F0000021C0B2FCF74AFBA0780021C0B2FCF755
:1043000033FBE0780021C0B2FCF72EFB64200021D3
:10431000FDF770FB0023E37310BDC046146000205E
:10432000BC220C4B520170B5002600259C1802E0FF
:10433000BC339C420DD01A788242F9D15A788A4215
:10434000F6D1DA88002AF3D0DE805D73BC339C425C
:10435000F1D170BD94480020F0B5C64600B598462E
:104360009378170005000E009C465B0618D0BC220F
:10437000264B52011C009A1802E0BC34A2422AD0FB
:1043800020788542F9D161788E42F6D1E188002902
:10439000F3D021798C45F0D1012080BCB846F0BD26
:1043A000BC221A4B52011C009A1802E0BC34944201
:1043B00011D020788542F9D161788E42F6D1E1881A
:1043C0000029F3D021798C45E6D021794906E3D044
:1043D000BC349442EDD11C00BC235B01E21802E026
:1043E000BC34A24210D0E388002BF9D13900200060
:1043F00005F0D2FC43462570A3706670BB78DB43A2
:10440000DBB2DB09E370C7E70020C6E79448002071
:10441000F8B50E001100BC22134B52017F279D18E6
:1044200002E0BC33AB4219D01C78A042F9D15C78D1
:10443000A642F6D1DC88002CF3D01A79002A02D0EB
:104440001A791742EDD100202D2218710130DA724D
:10445000D870253A180005F077FCF8BD0348FFF73F
:104460000DFD0020F9E7C0469448002068A7001021
:10447000F8B505006846008B1F4C8446BC204001FF
:10448000271850061BD002E0BC34BC421ED0267850
:104490002000B542F8D16678B142F5D1E688002E09
:1044A000F2D02679B242EFD16246190005F04CFCF9
:1044B000F8BD6678B1420FD0BC34BC4206D0267835
:1044C0002000B542F5D0BC34BC42F8D111000B48F5
:1044D000FFF704FD0020EBE7E688002EECD02679FC
:1044E000B24202D026797606E6D1227151424A4183
:1044F000E2700122E272D7E79448002080A7001002
:1045000070B553062DD0BC24284B64011E1902E05F
:10451000BC33B34240D01D781C00A842F8D15D786E
:10452000A942F5D1DD88002DF2D01D79AA42EFD144
:10453000637B002B34D00123E373637B002B06D114
:1045400008E00120FDF78CFA637B002B02D0A37BEF
:10455000002BF6D1637BD8B2002B23D10023E37369
:1045600070BDBC24114B64011E1902E0BC33B34280
:1045700012D01D781C00A842F8D15D78A942F5D16F
:10458000DD88002DF2D01D79AA42D1D01D796D06AB
:10459000CED0BC33B342ECD111000548FFF79EFCEE
:1045A0000020DDE700236373D8E7C046944800206D
:1045B00080A7001030B50024084B09E01D0A025DF9
:1045C0005340FF221340064A5B009B5A6B40013464
:1045D000A142F3DCD84380B230BDC046FFFF0000EB
:1045E0000022002003BD10B50400FDF749FCA047E0
:1045F00010BDD0231B061B6D9B07FAD5D0231B06CD
:10460000586540BF704700E020BFD0231B061B6DDC
:10461000DB07F9D5D0231B06986D704710B5134BF7
:10462000802252021A60124B1B68DB03FBD50F205D
:10463000FCF718FB040000210F20FCF72DFB0D4BAD
:1046400000225A700C4B802252021A60FFF7DBFFE7
:10465000002804D121000F20FCF71EFB10BD074BE2
:10466000074A08488121FFF7E5FAC04604200140C7
:1046700004000140604600200430014000A8001002
:104680001CB20010B0A70010F0B587B004000D00F8
:1046900017000F20FCF7E6FA060000210F20FCF7B8
:1046A000FBFA0022009201920132029203970495D4
:1046B000059400250CE0D0231B069B6DD0231B0620
:1046C0001B6DDB07F7D440BF07E00135052D0DD882
:1046D000AB006A469C58002CF0D02000FFF789FF01
:1046E000FFF791FF8442F0D00025EFE731000F2063
:1046F000FCF7D2FA07B0F0BD10B50C00930711D14A
:1047000003239A438B1819000C39094A92680860F0
:104710001800083804600748043B18600648FFF793
:10472000B3FF10BD054B064A06488921FFF782FA00
:1047300000ED00E0E7450010E54500100CA8001072
:10474000F8B10010B0A7001010B5064B064A93420E
:1047500005D3190080221201FFF7CEFF10BD012101
:104760004942F7E7000804200000042010B50400C7
:1047700010220021FEF71EF980235B022360F8233C
:104780005B0263608023DB02A360C0231B03A36082
:10479000200010BD0120704770B504000E00150008
:1047A0008B79002B1CD1FFF7F5FF00281BD00523C8
:1047B000F356002B01DBAB4218D10E4B9C466444F0
:1047C000240D0D4BA400E258317901238B40013BAD
:1047D000AB401A4201D1002070BD09204042FBE7E6
:1047E00014204042F8E70B204042F5E70B204042FE
:1047F000F2E7C0460000E0AFF4410020F8B5060043
:104800000D001700FFF7C8FF002822D1002405E0A3
:10481000DA19E31912339B009A5101342B79A34220
:1048200008D92A686300D35A802292019342EFD3B9
:104830001A00EEE701229A401300013B054A944614
:104840006644360D0449B6007258BB40134373509A
:104850003800F8BD0000E0AFF441002070B50A79DF
:10486000202A18D8174B9C466044000D164B800038
:10487000C45801239340013B497949B2002910DB18
:1048800008002025AA1A914218DC8B401C4201D056
:104890000120404270BD0D4B0D4A0E484321FFF7E9
:1048A000C9F92020801A002805DB1A008240144232
:1048B000F0D00138F7E709204042EBE70120404201
:1048C000E8E7C0460000E0AFF441002028A800104F
:1048D00034B2001054A8001010B5074B9C46604439
:1048E000000D012806D0054A800041180448FCF755
:1048F000E5F810BD034AF7E70000E0AFC0A80010DC
:104900000C4200209CA80010F8B505000E00FCF732
:10491000BFF8070031002800FFF7A0FF041E04DAEB
:104920003800FCF7C1F82000F8BD02003100280073
:10493000FFF764FF0400F3E7F8B504000E0017006A
:10494000FCF7A6F805003A0031002000FFF756FFFB
:1049500004002800FCF7A8F82000F8BDF0B5D64602
:104960004F464646C0B507000E0090461D004B005E
:104970005A18D20082181100DC3109688A46CC32FC
:10498000126891469B19DB00C833C318194A944634
:104990006344802292021A6018E02800FDF74AFB67
:1049A00042018023DB0413437400A419E4003C1982
:1049B0002200DC3213604346C34001221A40E02348
:1049C0001B021343D83423606B1E1D40002DE4D11D
:1049D00072009319DB00FB18DC3351461960921901
:1049E000D200BF18CC374B463B60E0BCBA46B1465C
:1049F000A846F0BD0430000010B5029BFFF7AEFFE3
:104A000010BD0000F0B5D6464F464646C0B507007B
:104A10000E0090461D004B005A18D200821811005B
:104A2000DC3109688A46CC32126891469B19DB005A
:104A3000C833C318194A94466344802292021A600C
:104A400017E02800FDF7F6FA42018023DB04134348
:104A50007400A419E4003C192200DC3213604346C0
:104A6000C34001221A400E4B1343D83423606B1EFF
:104A70001D40002DE5D172009319DB00FB18DC33DB
:104A8000514619609219D200BF18CC374B463B6093
:104A9000E0BCBA46B146A846F0BDC04604300000AE
:104AA00080E0000010B5029BFFF7ACFF10BD0000D6
:104AB000F0B5CE46474680B507AC25781F2A4AD8C0
:104AC0004C006618F60086193700DC373F68BC4694
:104AD000CC363668B0466418E400C83404191F4E5A
:104AE000B1464C448026B6022660002D01D01F2618
:104AF00014E0002612E05401A0256D0525434C006A
:104B00006418E40004192700DC373D60144D354378
:104B1000D8342560053B05321F242240052BEAD8F6
:104B20009B06520113434C006218D20082181500F4
:104B3000DC352B600A4B3343D832136063462B605D
:104B40006418E4000019CC30434603600020C0BC68
:104B5000B946B046F0BD05204042F8E704300000F9
:104B600080E00000F0B585B004000D00160002687A
:104B70000121A9408A430260002B36D018686A00E0
:104B80005219D200A2181100C83108609868083183
:104B90000860586804390860DB68DC3213606A001A
:104BA0005319DB00D033E318802149018C4663445C
:104BB0008021090619601960164BAB40A360291DBE
:104BC00001231800884080218901611808602800AD
:104BD000083083400B601F2333405219D200A418C1
:104BE000D8342360002005B0F0BD6846FFF7BEFD55
:104BF00000996B005B19DB00E3181A00C8321160E2
:104C00000299083211600199043A1160039ADC3369
:104C10001A60C4E70101010110B50100024A034B0B
:104C20001800FBF74BFF10BDDCA80010B463002098
:104C300070B50400002501E001356408002C05D0A2
:104C4000E307F9D52800FFF7E7FFF5E770BD00009F
:104C500070B582B07F230340C509274C5E007619EA
:104C60007601A419A0706842684160700020E0706D
:104C70002183E276012D1ED0D800204A944660445C
:104C80001D4A590049194901521890601A4A5900A1
:104C9000491949015218926800211160002B10D166
:104CA000154A5B005B195B01D31800225A60144A55
:104CB000DA6002B070BDD800124A94466044A06029
:104CC000E4E7012D0BD0591EC9000F4A94466144F8
:104CD000094A5B005B195B01D2185160E9E7591E74
:104CE000C9000A4A94466144034A5B005B195B01B0
:104CF000D2185160DDE7C0465C42002084001050AD
:104D000000011050800010500C001050080010508E
:104D100010B5038B3F333F229343C27E022A08D053
:104D200008490A68C260D3180B60074A934202D848
:104D300010BD5B00F4E7054B054A06485221FEF71B
:104D400079FFC0466C460020FF0F105000A90010EC
:104D50007CB2001044A90010F8B57F250540C609B3
:104D60006B009B195B010E4C1C19FFF771FF002DA6
:104D700000D1F8BD0A4B6D00AD196D015D19298B8D
:104D80002000FFF7C5FFEB7E9B06E968054A4A4015
:104D900013438022120613436A681360E9E7C04692
:104DA0005C4200200000105010B504007F2020401D
:104DB000E409400000194001024BC01800F02EF930
:104DC00010BDC0465C42002010B5002804D101216E
:104DD0000520FBF761FF10BD034B044A98210448EE
:104DE000FF31FEF727FFC046B8A900106CB20010D3
:104DF00044A9001010B5002805D100220021802010
:104E0000FFF7D2FF10BD034B034AA2210348FF3135
:104E1000FEF710FFB8A900105CB2001044A9001002
:104E2000024B80225202DA647047C04600301150B3
:104E3000024B80225202DA647047C04600201150B3
:104E400070B5041E27D100F0C7F8164D0C23AB67D0
:104E50001549FF220520FBF75BFF14484022002183
:104E6000FDF7A8FD002240210020FFF775FF00227A
:104E700040218020FFF770FF04F046FF01232B64E0
:104E800080239B05EB649023094AEA502000FFF73A
:104E9000CFFF012070BD074B074A64210748FF314F
:104EA000FEF7C8FE00001150FD2400205C420020E7
:104EB00010D00100B8A9001090B2001044A9001051
:104EC000044B1970002904D0034A902380218902E1
:104ED000D1507047B9630020002011500B785B0659
:104EE00002D14B78052B00D070478A78014B1A60AD
:104EF000FAE7C0460000115010B5CA789207920F29
:104F0000012A0AD088780B794979090219434905A1
:104F1000490DFFF721FF012010BD0020FCE710B56F
:104F200004F0F2FE10BD000010B5040008001100EE
:104F30001A00002C03D1FFF737FF012010BD034BEF
:104F4000034A812103488900FEF774FEB8A90010C6
:104F50004CB2001044A9001010B57F23180008407F
:104F60000B4205D1CB09012B0ED00222074B9A66CA
:104F7000C909400040184001054BC01880221201A9
:104F8000002104F019FF10BD0122EFE700201150AD
:104F90005C42002010B57F22100008400A4200D178
:104FA00010BDC909400040184001044BC01800233F
:104FB000C3700022024904F0FFFEF1E75C420020CA
:104FC000FFF7FFFF04E00A780270013101301A0098
:104FD000531E002AF7D1704710B580235B040A4A9C
:104FE00013600A4A13600A4B1A6880235B049343D8
:104FF000F9D18022520100210648FDF7DBFC064B67
:1050000009225A6710BDC04600E0004000F0004091
:1050100008C00040000010500000115070B504009E
:105020000D001600837E002B17D1A6820023E38299
:105030000133A3762561200004F0CEFE002804D0C1
:105040000C4A902380218902D150200004F064FE94
:1050500000280AD00123237770BD81780648FEF727
:105060003DFF200004F0A0FEDFE7200004F08CFEEE
:10507000F2E7C04600201150ACAA00100020704793
:1050800070B50500002408E09B1A5B01164A9B18C6
:10509000DB68280098470134E4B2144B1A782300E7
:1050A000511CA1420DDBA242EED9114B1B686201DB
:1050B0009B18002BECD10F490F48104AFEF70EFF4A
:1050C00010E00F4C542200212000FDF773FC201D3E
:1050D0001022FF21FDF76EFC200014302022FF215A
:1050E000FDF768FC70BDC0460CB40010B66300202C
:1050F0004C370020D8B30010E4AA001025020000AD
:10510000503D00200268EFF3108172B61368002B47
:10511000FCD0BFF35F8F4160704710B5FFF7B0FF61
:1051200000F074FE10BD70B505000C001600486953
:1051300000F076FE6369320001212800984770BDB7
:10514000F0B5DE4657464E464546E0B583B082464A
:105150000139C8B2FBF7C2FA002803D04378994658
:10516000022B0CD056495748574AFEF7B7FE00208D
:1051700003B0F0BCBB46B246A946A046F0BDC57917
:105180006C110122514B1440240119781026B143AF
:1051900021431970AD112A405201C9B22024A14304
:1051A0000A431A70060009368278C3781B0213433B
:1051B00083469B444B460193370066E0FB78994653
:1051C0003A78BF1868E03E493E48414AFEF786FEFD
:1051D0000020CDE7009AD31A5B013E4E9E19336939
:1051E0002200390050469847082801D9844216D237
:1051F0000135EDB2384B1B7800955A1CAA423EDBB4
:10520000AB42E7D9354B1B686E019E19002EE6D1E3
:105210002B492C48324AFEF761FE0020A8E73400F3
:10522000009E00904B46012B11D000204946814240
:105230001BD9BB781B18DBB2244AD2181279FF2A7B
:105240000CD1224AD3181D710130C0B2EFE7216999
:10525000244A9142E9D1019B9946E6E71849194849
:10526000214AFEF73BFE002082E720482B00009CED
:105270002200390001F070FDA446674400E02E00D2
:10528000154B1B7801339E420FDC5F4515D27B78AE
:105290000B2B93D0012399467A78042A93D15B464D
:1052A000DA1B93B200251C00A4E7852204490548B7
:1052B000D200FEF713FE00205AE7012058E7C0464F
:1052C000ACB30010E4AA0010D6030000503D00204B
:1052D000F10300000CB40010B66300204C3700202E
:1052E000FA030000ED62001019040000643D002084
:1052F00070477047002070470020704700207047BB
:1053000070B505000C00CB7888780F2B53D89A0025
:105310002E498A589746FBF7DDF9021E05D0122365
:105320002100280000F026FD46E0294929482A4AA4
:10533000FEF7D4FD00203FE0FFF7DCFF021E3CD06B
:105340008178C3781B020B432100280000F012FD76
:1053500032E0022B0CD0FFF7D1FF021E2FD0917844
:10536000D3781B020B432100280000F003FD23E04B
:10537000FBF7B4F9021EF2D115491648174AFEF799
:10538000ADFD002018E02379617909021943FBF78C
:10539000B3F9021E15D003782100280000F0EAFCC2
:1053A0000AE0FFF7A9FF021E0DD0037821002800B4
:1053B00000F0E0FC00E0002070BD0020FCE70020D1
:1053C000FAE70020F8E70020F6E7C046ACB200108C
:1053D00094B30010E4AA00103A0400006104000035
:1053E0007047704770477047024B5878431E98418A
:1053F000C0B27047503D0020024B18784007C00FE4
:105400007047C046503D002010B5034B1878FFF799
:1054100007FD012010BDC046B02E002010B5034B83
:105420001878FFF705FD012010BDC046B02E002002
:10543000034B1878FF38431E9841C0B27047C046EE
:10544000B02E0020F8B505000F00FFF7F1FF061E93
:1054500048D1002F21D02E4854220021FDF7AAFA6E
:105460002C4B00221A702C4C2000FBF7DDFD2B4B3F
:105470001C602B4C2000FBF723FE143C200001F0A5
:10548000F7FE284B1C60284B002B04D0274800E077
:1054900000BF274B1860002410E0E9222549264868
:1054A0005200FEF71BFD1DE09B1A5B01234A9B186F
:1054B0005B68002B10D098470134E4B21B4B1A787C
:1054C0002300511CA1420FDBA242EDD9184B1B68EF
:1054D00062019B18002BEBD1F822164916485200A6
:1054E000FEF7FCFC3000F8BD154B1D70390028009C
:1054F000FFF7A6FC061E03D02800FFF765FCF1E7C6
:10550000FC220C490C485200FEF7E8FCEAE7C046D2
:10551000503D0020BA630020483D0020A43D0020FB
:10552000A82E0020A83D002000000000B663002047
:105530004C370020FCB30010E4AA00100CB400109B
:10554000B02E002070B50D00104B1E788B787022A5
:105550001A420DD10E4B9978280001F0A7FB041ECA
:105560000DD029003000FFF7C7FC0400200070BDFB
:1055700008490948094AFEF7B1FC0024F6E7054945
:105580000548074AFEF7AAFCF0E7C046B02E002007
:10559000503D002064B30010E4AA00100B05000089
:1055A0000C050000F0B5D6464F464646C0B58146CC
:1055B0000C0017009846089B9A46002517E01849EA
:1055C0001848194AFEF78AFC00263000E0BCBA46AB
:1055D000B146A846F0BD9D2211491248D200FEF7FF
:1055E0007DFCF2E7099A13702378E4180135AF4285
:1055F00014DD6378052BE2D1E1788907890F4145F5
:10560000DDD121004846FFF79DFF061EE3D0A378B9
:10561000DA09012AE6D052461370E5E70126D4E7FD
:1056200074B30010E4AA0010E704000010B57F2056
:105630000840C909400040183030044BC0180430FD
:10564000034B196801F0EEFA10BDC046503D002032
:10565000A43D002010B57F200840C9094000401833
:105660003030044BC0180430034B196801F002FBC2
:1056700010BDC046503D0020A43D0020F0B5C646F8
:1056800000B582B001931A4800787F250D40CE09FD
:10569000184C6F00E419A41930342479E4071DD4A0
:1056A000144C6F00E419A419303423790127BC4647
:1056B00067463B432371019BFFF736FC002813D15B
:1056C0000C4B6D005B199B1930331A7901218A4309
:1056D0001A711A7903318A431A7105E0064907489D
:1056E000074AFEF7FBFB002002B080BCB846F0BDC5
:1056F000B02E0020503D002054B30010E4AA00104A
:105700003905000070B50A4B18787F240C40CD098C
:10571000FFF722FC074A640013195B1930331A792A
:1057200002210A431A711A7901210A431A7170BDC4
:10573000B02E0020503D002070B50A4B18787F2411
:105740000C40CD09FFF726FC074A640013195B19CA
:1057500030331A7902218A431A711A7901398A433E
:105760001A7170BDB02E0020503D00207F220A40EB
:10577000C909044B52009B185B1830331879800715
:10578000C00F7047503D0020F0B585B005000C00FB
:10579000002000F045FB237860221A40602A1AD0CE
:1057A000402A20D02378DB06DB0E012B00D1D6E087
:1057B000022B00D116E1002B00D07CE1202A1CD066
:1057C000002A00D07FE16378092B00D97DE19B009E
:1057D000C54AD3589F465532C449C5489200FEF782
:1057E0007DFB002668E1C34800F01AFB220001217E
:1057F0002800FFF743FC06005EE123790F2B00D958
:105800005DE1BD4AD3181B79BC4A1278934207D296
:10581000BB4A11685B01C918002909D100264BE178
:10582000511C994200DA4CE19B1A5B01B5495918A9
:1058300022002800FFF777FC06003DE1200000F081
:10584000F5FAA1782800FFF7D5FAAB4A13780221C0
:105850000B43137001262FE1A74B5B7802AA063297
:10586000137001232100280000F084FA012623E1AF
:10587000A678A14B5B78B3422CD09F4B5B78002B72
:105880000CD19D4B5E70002E22D031002800FFF716
:1058900057FC061E12D0FFF7A3FD1BE000212800D5
:1058A000FFF70EFB2800FFF73AFB934FBB780193FD
:1058B0002800FFF7E5FB019BBB70E2E7C9228B499B
:1058C0008B489200FEF70AFB8B4B00225A70F3E0E4
:1058D000FFF787FD2100280000F038FA0126EBE0F1
:1058E00021002800FFF70CFD0600E5E0A278E37830
:1058F0001B021343012B01D00026DDE07E4A137802
:1059000008210B4313702100280000F01FFA012624
:10591000D2E0A278E3781B021343012B01D00026CA
:10592000CAE0754A137808218B43137021002800C0
:1059300000F00CFA0126BFE06F4B1A78510992086B
:105940000223134001220A40134302AA06321380A5
:1059500002232100280000F00DFA0126ACE0237993
:105960000F2B00D9B3E0644AD3181B79634A12782D
:10597000934223D2624A11685B01C918002900D101
:10598000A7E022002800FFF7CEFB061E00D093E020
:10599000237860221A4200D08EE063780A3B012B04
:1059A00000D989E0002000F03BFA63780A2B0ED082
:1059B0002100280000F0CAF901267DE0511C99421F
:1059C00000DA88E09B1A5B014E495918D9E702AB0F
:1059D0009A1D0023137001332100280000F0CAF93A
:1059E000013669E021797F200840CE0970230B42FF
:1059F00017D1414B40001B189B191B7D3F48007875
:105A0000834215D23E4806685B01F618002A19D079
:105A1000002E62D0220031002800FFF784FB060030
:105A20004AE032493248384AFEF758FA002643E045
:105A3000461C9E4204DB1B1A5B01324E9E19E5E7B1
:105A40000026E3E76378012B10D0032B0ED0002B48
:105A500045D12800FFF78AFE02AB9A1D1080022371
:105A60002100280000F086F9012625E0A078E278E0
:105A70001202024304D1012B19D02800FFF742FE85
:105A8000002E2ED0220031002800FFF74CFB002012
:105A900000F0C6F9184B35229B5CDB07DE0F002BAC
:105AA0000AD12100280000F051F9012604E0280065
:105AB000FFF742FEE4E70026300005B0F0BD002607
:105AC000FAE70026F8E70026F6E70026F4E70026C6
:105AD000F2E70026F0E70026EEE70026ECE70026D6
